:0A0000002CC0FECFFDCFFCCFFBCFDC
:10000A00FACFF9CFF8CF53C0F6CFF5CFF4CFF3CF6D
:10001A00F2CFF1CFF0CFEFCFEECFEDCF1027E8033D
:10002A0064000A0001000010000110000100050030
:10003A0025643B25640D0A002573000001002D4E3E
:10004A00414E00494E46000001007601460000007C
:10005A00F894EE27ECBBF1E0FBBFEBBFE5BFF8E19C
:10006A00F1BDE1BD8DE0A2E0BB27ED938A95E9F7EA
:10007A0080E094E0A0E6ED930197E9F7E2E5F0E08D
:10008A0085919591009761F0A591B591059015908C
:10009A00BF01F00105900D920197E1F7FB01F0CF46
:1000AA00EFE5EDBFE4E0EEBFC0E6D1E004C10A929D
:1000BA001A92FA926A937A938A939A93AA93BA9320
:1000CA00EA93FA93EFB7EA93B6D55F9B69C098D1E2
:1000DA005E2EE0916A01F0916B01E05AFE4F508268
:1000EA00AAE6B1E0E5D2E8E7E51509F059C0E0E093
:1000FA00E0936A01E0936B01ECE6F1E0DFD2E1E61E
:10010A00F1E0DCD2A4E02AD1DF0146D18F01E091EF
:10011A006001F0E0E133A0E0FA0719F4D2D2EBD2A1
:10012A003EC0E233A0E0FA0721F4969AE7D2ECD275
:10013A0036C0E333A0E0FA0721F4C3D2969AE4D298
:10014A002EC0E433A0E0FA0731F496989798D6D2F5
:10015A00F0D2F7D224C0E533A0E0FA0729F4969842
:10016A00979805D30AD31BC0E633A0E0FA0731F407
:10017A00969A979AC3D2DDD2E4D211C0E733A0E0AF
:10018A00FA0729F4969A979AF2D2F7D208C0E2E4CB
:10019A00F0E094D2E0E6F1E006D309D30CD30BD316
:1001AA0054D5E991EFBFF991E991B991A991999142
:1001BA00899179916991F990199009901895AA9362
:1001CA00E881E7B98BE18A95F1F7369A349BFECF3D
:1001DA00349AE4B1F5B11DC1F4D2F8D2FAD2FCD204
:1001EA0068F4FED201D310D3A1E014D322D33ED3B4
:1001FA0014F4249603C0249643D3F0CF5AC0E1D214
:10020A0044D346D3E9D270F4EBD2A2E003D3FCD2B2
:10021A00A3E000D30ED32AD314F4249603C0249661
:10022A003AD3EFCF46C0CDD2D1D2D3D2D5D2D0F4A1
:10023A002297A5E0B0E06ED3D7D232D3EC81FD810C
:10024A0034D36CF4EDE3F0E039D2EC81FD81AA817C
:10025A00BB81C0D4B2D4D9D4AAD2229603C02296E2
:10026A000FD3E3CF26C0ADD210D312D3B5D208F53F
:10027A00B7D2A2E0CFD2C8D2A3E0CCD2DF01CB0161
:10028A00EA81FB819AD4B6D3C5D4E7D309D312D372
:10029A000CD364F4EDE3F0E011D2AA81BB8173D0F0
:1002AA000CD390D480D283D2249603C02496F3D25E
:1002BA00DCCF24960895E0E0E8BBE6E0E7BBE0E0A7
:1002CA00E5BBE4BBE2BBE0ECE1BBE0E0E3BFE2BFDD
:1002DA0012D2E9E8EEBDE0E0EDBDECBDE7BDE6BD5A
:1002EA00EBBDEABDE9BDE8BDE0E0F0E06FD2E0E0D9
:1002FA00E2BDE5BDE4BDE3BDE5BFE4E0E9BFE0E0A2
:10030A00EBB9E8E1EAB9E6E8E0BDE0E0E0BDE3E345
:10031A00E9B9E0E8E8B9E0E0E0BFE7B9E7E8E6B95B
:10032A00E0E0EDB9E6BF78948895FECFFFCFC8D25A
:10033A00A991B991EE27FF276D91662311F03196A5
:10034A00FBCF0895BDD2AA27BB27E991F991059061
:10035A00002011F01196FBCFFD010895AA9379911F
:10036A00E991F991A991B991CD01772351F07A9543
:10037A0061916D936623C9F7772319F07A956D9386
:10038A00FBCFFC0108959CD2E991F99130971AF4B8
:10039A00E095F0953196089593D2B981A881EC91B0
:1003AA008A2FAE2F7AD1A82FEE2311F01196F7CF0C
:1003BA00E894EC91ED3211F4689402C0EB3209F43E
:1003CA00119666277727EC918A2FAE2F5DD1A82F39
:1003DA00EE2379F0FB01660F771F660F771F6E0F0A
:1003EA007F1F660F771FED91FF27E0536E0F7F1F68
:1003FA00EACFFB011EF4E095F09531962296089516
:10040A005F9BFECFECB10895AA935D9BFECFE88176
:10041A00ECB92196089554D2AA81F6DFA881B98150
:10042A0047D1239608954CD2269701D410E0AC8583
:10043A00BD85E0E0F0E0ED93FC93EA89FB89319613
:10044A00EA8BFB8B3197E4912E2FE03009F4F8C048
:10045A00E12FE03031F4253211F411E001C033D23A
:10046A00EEC0E130A1F4253211F42DD2E7C012E03A
:10047A0040E000E02D3211F401E0E1C02B3211F42A
:10048A004BE2DDC0203211F440E2D9C002C0E230B2
:10049A0039F450E013E0203311F40068D0C003C0EF
:1004AA00E33009F0CCC0203310F02A3308F007C03B
:1004BA00AAE05A9F502DE22FE0535E0FC0C0E22FF0
:1004CA00E33639F407D209D205D2A481AA9309D214
:1004DA00B5C0E33729F40BD20CD229DF1E2F07C08F
:1004EA00E03749F404D205D22DDF1E2F08600260DE
:1004FA000F7730E02DC0E43611F0E93611F40460CC
:10050A0002C0E53729F4E6E2F0E0FAD115E00BC0C3
:10051A00E83511F4086003C0E83709F08FC0E0E35A
:10052A00F0E0EED114E002FF11C0E1D1ECD1AB85CD
:10053A00AA2332F4EA85FB8534D3EA87FB874DE2A6
:10054A00403011F01F5F01C00B7F02C0D0D1DBD158
:10055A0000FD10C0151770F407FF08C002FF04C0A1
:10056A000B7F242F115001C020E301C020E2ABD140
:10057A005150F0CF312F01FF13C0303081F003FF0B
:10058A0004C098D12591BCD104C097D12D91AE83D6
:10059A00BF8399D1503009F051503150EECF45C048
:1005AA0020E388D12ED3E887F98784D13296A8D15F
:1005BA00E885F985AA85BB85AE17BF0750F02F5F7E
:1005CA00A885B985EA85FB85EA1BFB0BEA87FB87C9
:1005DA00EFCF2A3328F003FF02C0295F01C0295D4B
:1005EA0004FD19C0213320F4A885B985119709F4AF
:1005FA0009C0531710F000FF01C011C020E207FF25
:10060A000AC020E3006102FF06C00B7F4A9369D14A
:10061A00503009F0515057D1503009F051503150F3
:10062A00A885B985129708F0BBCF00FF07C05030E4
:10063A0029F05150E0E2EA9354D1F9CF10E0FDCE0F
:10064A00AC85BD85DAD2FAD264960895FF92F82E67
:10065A002697F1D2DE011496A0D28D01E0E0EC8358
:10066A00ED83EE83EF83DE01189697D2C6D226D0A9
:10067A001A930A93E0E1F2E021D0DE011896D3DE64
:10068A00E1D22896FF900895AA93E1E0F991F03318
:10069A0010F0FA3308F0EE270895AA93E1E0F991F1
:1006AA00F03229F0F93010F0FE3008F0EE27089504
:1006BA00ED91FD913196FE93EE930895FA93EA93A4
:1006CA0008959698A4EFB1E025D1E1E8EFBDEAE3F9
:1006DA00F0E0F4DFE0E0F0E060E070E096D295D27E
:1006EA0088E0B4DF2A96F801A4E6B0E073D2E6DF28
:1006FA00A1E0B0E071CDE1E0EFBD0895A4EFB1E073
:10070A0009D1E1E8EFBD0895EAE3F0E0D7DFE0E0E0
:10071A00F0E060E070E079D278D288E097DF2A963C
:10072A00F801A4E6B0E056D2C9DFAFEFBFEF54DD5F
:10073A00E2CFF801AAE0B0E04DD2C0DFA1E0B0E01C
:10074A00089571DDE1EAEFBDEAE3F0E0B7DFE0E04A
:10075A00F0E060E070E059D258D288E077DF2A965C
:10076A00E0E1F7E2ABDFA1E0B0E049DDC4CFA4EFFE
:10077A00B1E0D0D0E1E2EFBDDCCF75DDE1EAEFBD5B
:10078A00EAE3F0E09BDFE0E0F0E060E070E03DD219
:10079A003CD288E05BDF2A96E0E1F7E28FDFA1E056
:1007AA00B0E01ADDA8CF662777272FD2089584E014
:1007BA004DDF26960895E0E0E0936001E093610141
:1007CA000895BA93AA93E0E0F0E00895FBBDEABD6C
:1007DA000895EAB5FBB50895EF3FA0E0FA0708953A
:1007EA002497A5E0B0E096C0A0E0E9DC6627772769
:1007FA0001D1AEE4B2E68CE990E481D1A0E0B0E0A8
:10080A0080E090E47CD10895DE011296BCD0ED938D
:10081A00FC930895D4DC66277727ECD0AEE4B2E6E1
:10082A008CE990E46CD1A0E0B0E080E090E467D17C
:10083A000895DF01CB01EA81FB81BFD1DBD0EAD188
:10084A000CD1DE01A0D0ED93FC93EAE3F0E036DFB1
:10085A00EE81FF81AC81BD81BDD1AFD1D6D1AE8150
:10086A00BF8191DDAA85BB85ADD19DCF88E0EEDE43
:10087A002A96EE81FF81A881B981EA17FB070895BC
:10088A00A8DF3196A3DF31970895F9BDE8BD089531
:10089A00E8B5F9B50895FCDF3196F7DF3197089589
:1008AA00DE0171D0ED93FC930895A881B981EA170E
:1008BA00FB070895EE81FF810895AE81BF810895F7
:1008CA00BA93AA9308952A93AD85BE85EF85F889D0
:1008DA0009950895E889F98908953497E88BF98B81
:1008EA000895AD85BE85EF85F88909950895F2DFEB
:1008FA00F4CFA889B989149680D1EE83FF83DDCF1E
:10090A00EE83FF830895A889B989149676D1EA8778
:10091A00FB870895109639F080ED97E00197F1F77B
:10092A00A8951197C9F70895552342F4503811F440
:10093A00E0FF04C03196691F791F6BF050E8572712
:10094A0011F45F93CAC05F3F31F0660F000C5795F0
:10095A006795752F08955F9300200AF0CAC0C3C037
:10096A0050E8192E1522880F991F9527550F87953C
:10097A0050E8072E0522660F771F7527550F6795D2
:10098A000895689401C0E8945F93F2DF703818F014
:10099A007F3F08F4A2C056E1571BAAF4519558307C
:1009AA000EF4593030F0EFEFFFEF6FEF7FE777F992
:1009BA001AC077275523B9F0EE0FFF1F661F771F5E
:1009CA005A95D1F710C07727583028F0EF2FF62F15
:1009DA00672F5850F9CF552331F076956795F795DB
:1009EA00E7955A95D1F700200AF4DFD05F91089570
:1009FA00689401C0E894309760407040B1F00024D8
:100A0A0026F0772312F40094D0D0172E7EE111201D
:100A1A0032F07A95EE0FFF1F661F111CF9CFEF2FE8
:100A2A00F62F612D5F938ADF5F9108954F93AF018F
:100A3A00FD01DA01AB01BC01CA01402D012C142EC3
:100A4A004F910895EA0FFB1F681F0895E095F095EE
:100A5A006095EF5FFF4F6F4F08955F9381DF903886
:100A6A0049F150E81526703821F1572F591B2BF1FF
:100A7A0012F4DCDFFACF583118F0AA27BB278827EF
:100A8A00583028F0AB2FB82F88275850F9CF552364
:100A9A0029F08695B795A7955A95D9F7502D5125DE
:100AAA0072F0D0DF38F46795F795E795739513F4EC
:100ABA0020C0BCDF43DF5F910895D8F7FBCFEA1B64
:100ACA00FB0B680B51F010F40094C0DF662392F31D
:100ADA00EE0FFF1F661F7A95CBF7EE27FF276627D3
:100AEA0077275F910895EFEFFFEF6FE77FEF5F9151
:100AFA000895EFEFFFEF6FE77FE75F9108955F9348
:100B0A002FDF703851F3903841F301240894791F8C
:100B1A0023F41CF300203AF3ECCF0F921F932F9388
:100B2A003F934F93112722279927689FA0018F9FF0
:100B3A00302D410D591F6B9F300D411D591F8E9F3E
:100B4A0027D0BF9F25D06A9F23D0BE9F1DD0AF9FBD
:100B5A001BD0AE9F110D291F391F491F591FE32FA3
:100B6A00F42F652F522F4F913F912F911F910F9084
:100B7A0066232AF0550FEE1FFF1F661F02C07395EA
:100B8A004BF2D2DE5F910895100D211D391F02C06C
:100B9A00200D311D491F591F08950024AF0DB01DA6
:100BAA000895F195E195F0400895F0956095709556
:100BBA00E195FF4F6F4F7F4F08956F2F660F660BBA
:100BCA00762F0895FA9FF02DEB9FF00DEA9FE02D06
:100BDA00F10D089504D0F6DF0EF4E3DF0895E894EA
:100BEA00F7FF02C0DEDF6894B7FF06C0A095B09594
:100BFA00119600F8039400FA0895ED91FC9111976B
:100C0A0008950590F491E02D08957A936A93FA93E2
:100C1A00EA930895182E862F612D192E972F712D7C
:100C2A001B2EBF2FF12D1A2EAE2FE12D08955A93A8
:100C3A004A933A932A931A930A9308955D814C81B1
:100C4A003B812A8119810881089509911991089592
:00000001FF
